:020000040800F2
:1000000018C60020A503000851D00008A5A20008CA
:1000100075CE00088D0B0008F143010800000000B8
:10002000000000000000000000000000E5020008E1
:1000300005180008000000004103000881040108C1
:10004000BF030008BF030008BF030008BF03000888
:10005000BF030008BF030008BF030008BF03000878
:10006000BF030008BF030008BF030008BF03000868
:10007000710F0008810F0008910F0008A10F000800
:10008000B10F0008C10F0008BF030008F5240008E5
:10009000152500080525000825250008BF030008D0
:1000A000BF030008BF030008BF030008BF03000828
:1000B000BF030008BF030008BF030008BF03000818
:1000C000BF030008BF030008BF030008BF03000808
:1000D000BF0300085D1B0108BF030008BF03000841
:1000E000BF030008BF03000800000000BF030008B2
:1000F000BF030008BF030008BF030008D10F0008BA
:10010000BF030008BF030008BF030008BF030008C7
:10011000BF030008BF0300087D060108BF030008F5
:10012000BF030008BF030008BF030008BF030008A7
:10013000BF030008BF030008BF030008BF03000897
:1001400000000000000000000000000000000000AF
:10015000BF030008BF030008BF030008BF03000877
:10016000BF030008BF030008BF030008BF03000867
:10017000BF03000855D00008BF03000800000000BE
:10018000BF030008BF030008DD0A0108F10A0108E7
:10019000BF030008BF030008BF030008BF03000837
:1001A000BF030008BF030008BF03000800000000F1
:1001B000BF030008BF030008BF030008BF03000817
:1001C000BF030008BF03000800000000000000009B
:1001D0000000000000000000BF0300080000000055
:1001E000000000000000000000000000000000000F
:1001F0000000000000000000BF030008BF0300086B
:10020000BF030008BF03000800000000BF03000890
:10021000BF030008BF030008BF030008BF030008B6
:10022000BF03000800000000BF030008000000003A
:10023000BF030008BF03000800000000BF03000860
:10024000BF030008BF030008BF030008BF03000886
:10025000BF030008BF030008BF030008BF03000876
:10026000BF030008BF030008BF030008BF03000866
:10027000BF030008BF030008BF0300080000000020
:10028000BF030008BF030008BF030008BF03000846
:1002900000000000BF030008BF03000800000000CA
:1002A00000000000BF030008BF030008010B0108A5
:1002B000BF030008BF030008BF030008352500087E
:1002C000452500086D060108BF030008DFF810D0BF
:1002D00000F0F4FA00480047FD850108AFF3008004
:1002E00018C600202C4B19680868B0E8F04F80F35E
:1002F0000988BFF36F8F4FF0000080F311887047BB
:100300000000000008480068006880F308884FF08B
:10031000000080F3148862B661B6BFF34F8FBFF35D
:100320006F8F00DF00BF00BF08ED00E0DFF80C00BA
:10033000016841F470010160704700BF88ED00E082
:10034000EFF30980BFF36F8F134B1A681EF0100F85
:1003500008BF20ED108A20E9F04F106009B44FF07B
:10036000500080F31188BFF34F8FBFF36F8F1AF0E7
:1003700045FE4FF0000080F3118809BC1968086839
:10038000B0E8F04F1EF0100F08BFB0EC108A80F3F9
:100390000988BFF36F8F704788000024EFF3058052
:1003A000704700000648804706480047FEE7FEE722
:1003B000FEE7FEE7FEE7FEE7FEE7FEE7FEE7FEE715
:1003C0008D050108CD0200082DE9F05F05460020EB
:1003D00092469B4688460646814640241BE02846B6
:1003E00041464746224600F084F853465A46C01A12
:1003F000914110D311461846224600F06BF82D1A91
:1004000067EB01084F4622460120002100F062F808
:1004100017EB00094E41201EA4F10104DFDC484621
:1004200031462A464346BDE8F09F10B5431A934231
:1004300009D28318881803E010F8011D03F8011D84
:10044000521EF9D210BD40EA01039B0703D009E018
:1004500008C9121F08C0042AFAD203E011F8013BB0
:1004600000F8013B521EF9D210BDD2B201E000F8F3
:10047000012B491EFBD270470022F6E710B5134648
:100480000A4604461946FFF7F0FF204610BD30B576
:1004900004460020034600E05B1C934203D2E05C6C
:1004A000CD5C401BF8D030BD30B50B460146002076
:1004B0002022012409E021FA02F59D4205D303FA26
:1004C00002F5491B04FA02F52844151EA2F10102A7
:1004D000F1DC30BD202A04DB203A00FA02F10020D2
:1004E00070479140C2F1200320FA03F31943904072
:1004F0007047202A04DB203A21FA02F000217047DD
:1005000021FA02F3D040C2F120029140084319467B
:1005100070472DE9FE4F804681EA0300C00F0C466C
:10052000009021F0004123F00045B8EB0200A94102
:1005300005D24046214690461C460B46024623F013
:100540000040104347D0270DC7F30A00C3F30A51F8
:100550000290401A019040286BDAC3F3130040F474
:10056000801B0098924620B10023D2EB030A63EB74
:100570000B0B01985946C0F140025046FFF7AAFF05
:1005800006460D4650465946019A00F0A9F910EB6F
:1005900008006141002487EA115284EAE7731A4394
:1005A00040D0009A62B3019A012A4FEA075215DC43
:1005B000001B61EB02014FF0004202EA0752CDE955
:1005C0000042001C41F5801132462B4600F0A9F98B
:1005D00003B0BDE8F08F40462146F9E7001B61EB10
:1005E0000201001C41F5801300185B412018A2F5A0
:1005F000001747EB030140EAD570B6196D4111E0D1
:100600006D084FEA360645EAC0754FEA0752001BEF
:1006100061EB0201001C41F5801149084FEA3000EE
:100620000019514132462B4603B0BDE8F04F00F0AF
:1006300069B90098012240000023D0EB020263EB6D
:10064000E073009821464FEAE074B8EB000061EBDC
:100650000401E9E783F000435BE781F0004158E7DC
:100660002DE9FE4F81EA030404F0004421F000412B
:1006700000944FF0000B23F0004350EA01045ED0D9
:1006800052EA03045BD0C3F30A54C1F30A552C4465
:10069000A4F2F3340194A0FB0254C1F3130141F41A
:1006A0008011C3F3130343F4801301FB024400FBE6
:1006B000034E840A970A44EA815447EA8357A4FB0D
:1006C000076802958D0A05FB07854FEA932C04FB0A
:1006D0000C542705029D4FEA065847EA1637B5EB3A
:1006E00008056EEB070C870E920E47EA811742EA67
:1006F0008312A7FB0201B6EB0B0164EB00042B0D88
:1007000043EA0C335E1844EB1C50DA465146E7FBD3
:100710000201C5F313044FEA0B3343EA14534FEAC3
:100720000432019C43EA0603A4F10C040294009CE9
:10073000CDE900B400F0F5F803B0BDE8F08F00207B
:100740000146F9E72DE9F04D81EA030404F0004B7E
:1007500021F0004514464FF0000A23F0004150EA12
:10076000050220D054EA01021DD0C5F30A57024603
:10077000C5F31303C1F31300C1F30A5640F4801507
:1007800043F48013A7EB0608101BD64608F2FD3889
:1007900073EB050002D308F1010801E092185B41F8
:1007A000B8F1000F03DA00200146BDE8F08D00200B
:1007B0004FF48011064684460EE0171B73EB0507C5
:1007C00005D3121B63EB050306434CEA010C4908F1
:1007D0004FEA300092185B4150EA0107EDD152EA2E
:1007E000030012D082EA040083EA0501084305D021
:1007F000101BAB4106D20122002306E000224FF07D
:10080000004302E06FF0010253101AEB06004CEBBC
:10081000085110EB0A0041EB0B01BDE8F04D00F070
:1008200071B8C1F30A52C1F3130140F2FF3341F42E
:1008300080119A4202DA00200146704740F23343A9
:100840009A42A2F2334202DC5242FFF752BEFFF755
:1008500041BE000030B5041E71F1000404DB4FF00E
:100860000044404264EB0101141E73F1000405DBF7
:100870001C464FF00043524263EB0403994208BF09
:10088000904230BD002801DBC0F10040002901DBAF
:10089000C1F10041814202D24FF0004004E04FF02C
:1008A000005001D14FF0C0404FEA2062EFF30081C9
:1008B00062F31F6181F3008870470000064C074D0A
:1008C00006E0E06840F0010394E807009847103420
:1008D000AC42F6D3FFF7FEFCD43F040814400408F2
:1008E000202A06DBCB17203A41FA02F043EAE073F4
:1008F00006E041FA02F3D040C2F1200291400843E1
:100900001946704710B5141E73F1000408DA401C34
:1009100041F1000192185B411A4301D120F001001E
:1009200010BD2DE9F04D92469B4611B1B1FA81F20E
:1009300002E0B0FA80F220329046FFF7CBFD044689
:100940000F4640EA0A0041EA0B0153465A46084363
:1009500013D0114653EA010019D0C8F140025046A5
:10096000FFF7C7FD05460E46504659464246FFF77B
:10097000B1FD084305D0012004E020463946BDE81A
:10098000F08D0020054346EAE0762C4337430A9871
:100990006305E40AA0EB08000022FD0A44EA47547C
:1009A0000A3002D500200146E9E701051019694126
:1009B000DDE9084500196941BDE8F04DA2E770B5D1
:1009C0008C1810F8015B15F0070301D110F8013BFA
:1009D0002A1106D110F8012B03E010F8016B01F881
:1009E000016B5B1EF9D12B0705D40023521E0DD4D9
:1009F00001F8013BFAE710F8013BCB1A921C03E027
:100A000013F8015B01F8015B521EF9D5A142D8D35E
:100A1000002070BDF0EE400A9FED050AB4EEE00A3A
:100A2000F1EE10FAB1EE600A30FE200A70470000C5
:100A30000000000010B500BFEFF31080044672B64E
:100A400018210648FFF718FD00200449886108773F
:100A50004877204680F3108800BF10BD3CB00020CE
:100A600005E0DFED0E0A70EE600AB0EE600ADFED21
:100A70000C0AB4EEE00AF1EE10FAF2DC05E0DFED6C
:100A8000070A70EE200AB0EE600ADFED060AB4EE47
:100A9000E00AF1EE10FAF2D370470000DB0FC94014
:100AA000DB0F4940DB0F49C010B5044604B910BD47
:100AB00048212046FFF7E0FCB7EE000A84ED000A6B
:100AC00000BFF4E770B52DED028B04461CB9002081
:100AD000BDEC028B70BDD4ED000A60EEA00A94ED6F
:100AE000011AD4ED011A41EE210A94ED021AD4ED57
:100AF000021A41EE210A94ED031AD4ED031A41EED5
:100B0000210AB0EE600A14F075FAB0EE408A18EED1
:100B1000100AC0F3C751FF2901D0012100E00021D4
:100B200031B19FED180AB4EEC08AF1EE10FA01D28D
:100B30000020CDE700250BE004EB850090ED000AD6
:100B4000C0EE080A04EB8500C0ED000A681CC5B2BF
:100B5000042DF1D3002511E004F1100000EB850015
:100B600090ED000ADFED080A20EE200A04F11C00D7
:100B700000EB850080ED000A681CC5B2032DEBD3A5
:100B80000120A5E76F12833A35FA8E3C00BFFEE7DD
:100B90000346042B15D007DC7BB1012B0ED0022BB2
:100BA0000DD0032B12D10BE0202B0BD0212B0AD020
:100BB000222B09D0232B09D107E008E007E006E04B
:100BC00005E004E003E002E001E000E000BF00BF58
:100BD000002070470020704710B5002204490548E6
:100BE00011F05FFA0449034811F04CFA002010BDDF
:100BF000B01F00203C0F0024B017002070B5044641
:100C00000D462146034811F03DFA024811F006FA5C
:100C1000002070BD3C0F002410B503460C46002197
:100C2000084610BD014609B1032901DD00207047C7
:100C3000481E024A52F82000F9E70000540100243F
:100C400001460948814201D100207047074881428E
:100C500001D10120F9E70648814201D10220F4E7E1
:100C60004FF0FF30F1E700002C060024CC060024F2
:100C70006C07002470B500252CE005EBC50000EBE7
:100C80004510164901EB8004002060660021A16632
:100C9000E1660821216700216167A167E167802083
:100CA000015184200151002004F8880F44F8280CD9
:100CB0006060206104F094FCE06004F091FC6061ED
:100CC00004F08EFCA061284600F0BCF880F0010022
:100CD00020706D1C032DD0D370BD0000A4A7002090
:100CE0002DE9F047074604F07BFC05464FF001096B
:100CF00000265BE006EBC60000EB46102E4901EB38
:100D00008004206E28B954F88C0FE06025618C3C7B
:100D10004BE0D4F88C00D4F89810884201D0012020
:100D200000E00020804694F88800012805D1B8F141
:100D3000000F02D0002084F8880094F88800012871
:100D40000CD1D4F8A000281A642807D3304600F04C
:100D5000B5F8304600F076F8C4F8A05057B988349A
:100D600060682061656114F88809012801D14FF09D
:100D700000091AE0B8F1000F05D054F88C0FE060BC
:100D800025618C3C0AE0D4F89C00281A642805D917
:100D900094F8880010B9012084F8880094F888003D
:100DA000012801D14FF0000900BF761C032EA1D30A
:100DB0004846BDE8F0870000A4A700202DE9F05FB9
:100DC00083460E46174699465846FFF739FF824636
:100DD000BAF1000F00DB17B90020BDE8F09F0AEB65
:100DE000CA0000EB4A10164901EB8004206E082867
:100DF00001D30020F1E7002108E001EB410054F8A5
:100E00002000B04201D10020E7E7491C206E884253
:100E1000F3D8D4F8608008EB480004EB80052E601E
:100E20006F60C5F8089000BF00BF00BFBFF35F8FC1
:100E300000BF00BF00BF08F1010020660120CCE721
:100E4000A4A7002030B589B004461B4850F82450B0
:100E5000202101A8FFF710FB002001900220039041
:100E600001200490002005900690029001A92846D8
:100E700003F0E9FB18B9284604F03FFA10B100204E
:100E800009B030BD00220121284603F03FFB60B9C4
:100E900000220821284603F039FB30B900224FF028
:100EA0000071284603F032FB20B1284604F03FFAD7
:100EB0000020E5E70120E3E75401002470B5054672
:100EC000084850F825402068D0F8D4002168D1F8AF
:100ED000CC1008432168C1F8D400204604F027FA5A
:100EE00070BD0000540100242DE9F04389B0804614
:100EF0000F4691461C464046FFF7A2FE0646002ECE
:100F000001DB082C03D9012009B0BDE8F08319F0FA
:100F1000FDFD404603F016FD18B919F021FE012031
:100F2000F2E706EBC60000EB4610104A02EB800029
:100F300000F1640124226846FFF777FA00970394D2
:100F40004A466946404603F035FB054655B904F06C
:100F500047FB06EBC60101EB4611044A02EB810197
:100F6000C1F8940019F0FCFD2846CDE7A4A70020A5
:100F700010B5024802F0C0F810BD0000F40B0024C8
:100F800010B5024802F0B8F810BD00006C0C002447
:100F900010B5024802F0B0F810BD00004C0E00245D
:100FA00010B5024802F0A8F810BD0000D40D0024CE
:100FB00010B5024802F0A0F810BD0000E40C0024B7
:100FC00010B5024802F098F810BD0000C40E0024CD
:100FD00010B5024802F090F810BD00005C0D00242E
:100FE0000146374A0868904249D0354A18320868A5
:100FF000904244D0324A3032086890423FD0304A62
:101000004832086890423AD02D4A603208689042CF
:1010100035D02B4A78320868904230D0284A903236
:10102000086890422BD0264AA8320868904226D001
:10103000244A0868904222D0224A18320868904216
:101040001DD0204A30320868904218D01D4A4832DC
:101050000868904213D01B4A6032086890420ED054
:10106000184A78320868904209D0164A90320868C7
:10107000904204D0134AA8320868904201D101205E
:1010800000E00020B0B10A78103A1823B2FBF3F068
:1010900000F007020C4B9A5CCA65032805D90A6860
:1010A0006FF30902121D8A6503E00A686FF30902F3
:1010B0008A6503E0086820F0FF008865886D704746
:1010C0001000024010040240D4C3010810B50268A9
:1010D0002B4C0368A34222D0294C14340368A3424A
:1010E0001DD0274C28340368A34218D0244C3C342C
:1010F0000368A34213D0224C50340368A3420ED09D
:101100001F4C64340368A34209D01D4C7834036833
:10111000A34204D01A4C8C340368A34201D10123AA
:1011200000E000238BB10378083B1424B3FBF4F1F7
:10113000144B03EB81030366124B8033436601F0CB
:101140001F040123A340836618E00378103B182492
:10115000B3FBF4F10C4B9A4204D80B4BA83B9A42D8
:1011600000D30831094B03EB81030366074B80333F
:10117000436601F01F040123A340836610BD0000F5
:101180000854025800580258B804024000080240AF
:101190000179A9B3082940D8204B02689A4222D08D
:1011A0001E4B143302689A421DD01C4B2833026830
:1011B0009A4218D0194B3C3302689A4213D0174B0D
:1011C000503302689A420ED0144B643302689A423C
:1011D00009D0124B783302689A4204D00F4B8C33FB
:1011E00002689A4201D1012200E000224AB14A1E5F
:1011F0000B4B03EB8202C266094A4032026708E0E9
:101200000BE04A1E074B03EB8202C266054A4032DE
:1012100002674A1E012393404367704708540258EF
:101220000059025800090240014600208A69D2B9DB
:101230008A6A32B1012A0DD0022A03D0032A10D1C2
:101240000EE000BFCA6A02F08072B2F1807F00D166
:10125000012007E0CA6AB2F1C07F00D1012001E09D
:1012600000E000BF36E08A69B2F5005F1BD18A6AF0
:1012700032B1012A07D0022A03D0032A11D10AE091
:1012800000BF01200EE0CA6A02F08072B2F1807FD6
:1012900000D1012006E0CA6AB2F1C07F00D101206E
:1012A00000E000BF16E08A6A32B1012A05D0022AA6
:1012B00004D0032A0CD103E000BF00BF012008E0E6
:1012C000CA6A02F08072B2F1807F00D1012000E092
:1012D00000BF00BF70470000F0B5856D846D984F6A
:1012E0000668BE4270D0964F18370668BE426BD073
:1012F000934F30370668BE4266D0914F4837066834
:10130000BE4261D08E4F60370668BE425CD08C4FC3
:1013100078370668BE4257D0894F90370668BE427C
:1013200052D0874FA8370668BE424DD0854F066819
:10133000BE4249D0834F18370668BE4244D0814F21
:1013400030370668BE423FD07E4F48370668BE42FF
:101350003AD07C4F60370668BE4235D0794F783737
:101360000668BE4230D0774F90370668BE422BD019
:10137000744FA8370668BE4226D0734F0668BE4237
:1013800022D0714F14370668BE421DD06E4F2837E9
:101390000668BE4218D06C4F3C370668BE4213D078
:1013A000694F50370668BE420ED0674F64370668F3
:1013B000BE4209D0644F78370668BE4204D0624FFF
:1013C0008C370668BE4201D1012600E000263EB1FE
:1013D000D0E919767E60C66E16B1D0E91C767E60C3
:1013E000574F0668BE4249D0554F18370668BE426F
:1013F00044D0534F30370668BE423FD0504F483735
:101400000668BE423AD04E4F60370668BE4235D0BD
:101410004B4F78370668BE4230D0494F9037066848
:10142000BE422BD0464FA8370668BE4226D0454F55
:101430000668BE4222D0434F18370668BE421DD010
:10144000404F30370668BE4218D03E4F48370668D6
:10145000BE4213D03B4F60370668BE420ED0394FB4
:1014600078370668BE4209D0364F90370668BE42CC
:1014700004D0344FA8370668BE4201D1012600E0EF
:101480000026DEB190F85C6006F01F073F26BE40E4
:10149000AE600668366826F4802607683E600668F7
:1014A00073608668402E04D10668B2600668F160F9
:1014B00044E00668B1600668F2603FE0224F0668CB
:1014C000BE4222D0204F14370668BE421DD01E4FA8
:1014D00028370668BE4218D01B4F3C370668BE420C
:1014E00013D0194F50370668BE420ED0164F6437DE
:1014F0000668BE4209D0144F78370668BE4204D051
:10150000114F8C370668BE4201D1012600E000264B
:10151000A6B190F85C6006F01F070126BE40666029
:10152000066873608668402E04D10668B26006685B
:10153000F16003E00668B1600668F260F0BD00008B
:10154000100002401004024008540258024608B23B
:10155000824203DC08B24042824201DA1046704700
:101560000020FCE708B504484023044A04490090E1
:1015700004480FF00DFE08BDE1160008D40D00244C
:10158000CC0A0024C016002410B50A48807D08B992
:10159000002010BD04F024F806498969401A322859
:1015A00005D91C210348FEF767FF0020F1E7012061
:1015B000EFE7000090A9002010B588B0044620781D
:1015C000617840EA0120C0F30A00A0F58060ADF820
:1015D00004006078C010A17840EA4110C0F30A000E
:1015E000A0F58060ADF80600A0788011E17840EAAF
:1015F0008100217940EA8120C0F30A00A0F58060D3
:10160000ADF8080020794010617940EAC110C0F3BC
:101610000A00A0F58060ADF80A006079001180082A
:101620008DF80E006079C0F301108DF80F00A079DD
:10163000E17940EA012000B2ADF81000207A617A29
:1016400040EA012000B2ADF81200A07AE17A40EA47
:10165000012000B2ADF81400207B8DF81600607BED
:101660008DF81700A07BE17B40EA0120ADF818005F
:10167000207C617C40EA0120C0F5806000B2ADF8BA
:101680000C0001A800F044F808B908B010BD012012
:10169000084908708DF81A0003F0A2FF07901C2279
:1016A00001A90548FEF7C1FE00200249087000BFED
:1016B000EBE700007801002490A9002010B590B05D
:1016C0004022694605480FF04DFE0446122C02DB0D
:1016D0006846FFF771FF10B010BD0000C01600246F
:1016E0007047000010B504460748007828B11C2256
:1016F00006492046FEF799FE10BD1C2203492046EC
:10170000FEF793FE00BFF7E77801002490A90020C0
:101710000146B1F9000010F5257F04DBB1F90000A6
:10172000B0F5257F01DD00207047B1F9020010F50A
:10173000257F04DBB1F90200B0F5257F01DD002033
:10174000F2E7B1F9040010F5257F04DBB1F90400DC
:10175000B0F5257F01DD0020E6E7B1F9060010F5C0
:10176000257F04DBB1F90600B0F5257F01DD0020FF
:10177000DAE7B1F9080010F5257F04DBB1F90800BC
:10178000B0F5257F01DD0020CEE7887A012802DB55
:10179000887A032801DD0020C6E7C87A012802DB29
:1017A000C87A032801DD0020BEE7887C012802DC1E
:1017B000C87C012801DD0020B6E70120B4E7000065
:1017C000B0EE401AF5EEC00AF1EE10FA02D8B0EE13
:1017D000410A7047B4EEE01AF1EE10FA02DD31EE84
:1017E000600AF6E7B1EE600AB4EEC01AF1EE10FA44
:1017F00002D231EE200AECE79FED010AE9E7000092
:10180000000000007047000070B5094C0020094935
:10181000088048808880C8800749096891F83400AA
:10182000FFF700FA05466188024A00F059F970BDD9
:1018300070C4010860010024BCCD010810B500206F
:1018400047E000EB8003244C04EBC30191F8223005
:1018500003B93CE0002381F82230012383401F4C70
:10186000246823406BB90B891D4C24F810300123E8
:1018700083401A4C24682343184C23600B890B6166
:1018800025E00B89164C34F810401A1BB2F5805F26
:1018900007DD144B53F820305B1E124C44F8203007
:1018A00009E012F5805F06DA0E4B53F820305B1C1E
:1018B0000C4C44F820300B89094C24F810300C896A
:1018C000084B53F8203004EB43330B6100BF411C3D
:1018D000C8B20228B5D310BD6815002474010024D5
:1018E000680100246C0100240749096891ED020A8F
:1018F0009FED061AC1EE000A00EE100AB8EEC00A0B
:1019000020EE800A70470000BCCD0108DB0F493A89
:101910002DE9F04100241DE0104800EB840504EBA4
:1019200084000F4901EBC0070E49096891F83400A3
:10193000FFF778F906461EB12888B0F5006F00D38E
:1019400006E029883B46084A3046FFF737FA00BFD1
:10195000601CC4B2022CDFD3BDE8F08170C4010862
:1019600068150024BCCD0108791A000810B504469A
:10197000022C01D3002010BD04EB84000A4901EBC6
:10198000C00090F8210060B103F02AFE04EB84014E
:10199000054A02EBC101496A401A0A2801D8012010
:1019A000E9E70020E7E70000681500247CB5002285
:1019B00056E002EB82032E4C04EBC30090F820307B
:1019C00003B94BE000BFEFF31083194600BF72B6B6
:1019D000002304E0C45C0DF803405C1CE3B2082B58
:1019E000F8D3002380F8203000BF81F3108800BFB7
:1019F0009DF801309DF8004043EA042303819DF8DF
:101A000003309DF8024043EA04231BB243819DF852
:101A100005309DF8044043EA04231BB283819DF8FE
:101A200006305BB28373134B1B682C3303EB42030A
:101A300093F90030002B0DDA03891BB10389C3F53C
:101A40000053038143895B421BB2438183895B421C
:101A50001BB28381012380F8223000BF501CC2B228
:101A6000022AA6D3FFF7EAFE00F0F0F87CBD0000E2
:101A700068150024BCCD01082DE9F04105468846D3
:101A800016461F462C4614B10EB1082F01D2BDE8F0
:101A9000F081002003E0315C2154411CC8B20828C9
:101AA000F9D3012084F8200003F09AFD6062012040
:101AB00084F8210000BFEAE70749096891ED020AAE
:101AC0009FED061AC1EE000A00EE100AB8EEC00A39
:101AD00020EE800A70470000BCCD01085077D63D4B
:101AE0002DE9FC4105460E4614461DB114B1B6F56C
:101AF000006F02D30120BDE8FC8100200CE034F926
:101B00001010C1F307220DF81020CBB24200521C76
:101B10000DF80230411CC8B20428F0D308236A46ED
:101B200031462846FFF7E0F9E5E700002DE9F041EE
:101B30002DED028BB0EE408B204C251D2078401EF1
:101B4000C6B22878401EC7B200201D4908804880D0
:101B50008880C8801B48006890F92D0000EE900A2C
:101B6000F8EEE00A60EE880AB0EE600A002000F0AD
:101B70002BF8134921F816001248006890F92F003D
:101B800000EE900AF8EEE00A60EEA80AB0EE600AF5
:101B9000012000F019F80A4921F8170009490968DD
:101BA00091F83400FFF73EF880466188044AFFF759
:101BB00097FFBDEC028BBDE8F081000070C4010806
:101BC00060010024BCCD01080346F0EE400A022B60
:101BD00001D30020704718480068407970B9164852
:101BE000006890ED021A9FED152AC1EE021A9FEDD2
:101BF000141A21EE810A42F210710DE00E480068BD
:101C000090ED021A9FED0F2AC1EE021A9FED0E1AF7
:101C100021EE810A4FF4804180EE801ABDEEC11A98
:101C200011EE102A8A4200DD0A464842824200DA5A
:101C30004A4210B2CEE70000BCCD010800001042BD
:101C400062BE3C399A9999410000C03900B5002321
:101C500016E003EB83000C4901EBC0021089FFF78B
:101C600043FE82ED050A1069FFF73EFE82ED060A8B
:101C7000B2F90A00FFF720FF82ED070A581CC3B231
:101C8000022BE6D300BD00006815002470B50025C6
:101C9000002407E0FD21204600F03AFA00B10125BA
:101CA000601CC4B2042CF5DB284670BD70B500255D
:101CB000002407E0FC21204600F02AFA00B10125AB
:101CC000601CC4B2042CF5DB284670BD70B503F06F
:101CD00087FC054600241AE0204600F0D7F8A0B1A2
:101CE00004EB44000B4901EB0010807B01280CD170
:101CF000094850F82400281A642806D3FD212046FC
:101D000000F006FA044840F82450601CC4B2042CC9
:101D1000E2DB70BDB81500249816002470B503F0FE
:101D20005FFC0546002419E0204600F0AFF898B1AA
:101D300004EB44000B4901EB0010807B60B90A48BA
:101D400050F82400281A642806D3FC21204600F00D
:101D5000DFF9054840F82450601CC4B2042CE3DBD2
:101D600070BD0000B815002488160024014601202B
:101D70008840401E01EE900AB4EEE00AF1EE10FA3F
:101D800001D2B0EE600AB4EEC10AF1EE10FA01DD44
:101D9000B0EE410A30EE603A71EE603AC3EE232AAB
:101DA000B8EE613A22EE832AFCEEC22A12EE900AC5
:101DB00080B270470146042901DB0020704701EB27
:101DC0004100064B03EB0010827B082A03D30E2A46
:101DD00001D80120F2E70020F0E70000B815002448
:101DE00070B500242EE0194800EB840518490968F5
:101DF0003031085DFEF716FF06463EB12888B0F583
:101E0000006F03D26888B0F5006F00D318E004EBD0
:101E10004400104A02EB001329880F4A3046FEF7AF
:101E2000CDFF68882988884209D004EB4400094A1C
:101E300002EB00136988084A3046FEF7BFFF00BF77
:101E4000601CC4B2042CCEDB70BD000078C4010855
:101E5000BCCD0108B8150024D120000810B50446F7
:101E6000042C01DB002010BD204600F00FF840B12B
:101E700004EB4400044901EB0010807B012800D1F1
:101E8000F1E70020EFE70000B815002410B5044684
:101E9000042C01DB002010BD04EB44000A4901EBD7
:101EA000001090F8290060B103F09AFB04EB4401A4
:101EB000054A02EB0111C96A401A0A2801D801201B
:101EC000E9E70020E7E70000B81500242DE9FC5FF2
:101ED00004460F4615461E46DDE90C89042C02DB3C
:101EE0000120BDE8FC9FB5F5805F08D2B6F5805FA4
:101EF00005D2B8F5805F02D2B9F5805F01D3012029
:101F0000EFE7194800EB840A38128DF80000F8B2A8
:101F10008DF80100C5F307108DF80200280140EA92
:101F20002620C0B28DF80300F0B28DF80400C8F38B
:101F300007108DF805004FEA081040EA2920C0B2CA
:101F40008DF8060009F0FF008DF8070007490968C1
:101F50003031085DFEF766FE8346BAF802100823AA
:101F60006A46FEF7C1FFBCE778C40108BCCD010892
:101F70007CB50025A4E005EB4500534901EB0014B6
:101F800094F8280000B999E000BFEFF310800646EE
:101F900000BF72B6D4E90001CDE90001002084F849
:101FA000280000BF86F3108800BF9DF800000011D4
:101FB000A0739DF8000000F00F00E0739DF8020090
:101FC0009DF8011040EA012020819DF803000001E6
:101FD0009DF8041040EA211060819DF805009DF8ED
:101FE000041001F00F0140EA0120A0819DF80600D5
:101FF00020749DF80700607434480068243000EBBA
:10200000450090F9000000280BDA20894FF6FF7197
:10201000081A208160890911081A6081A089081AAC
:10202000A0812A49096891ED051AF0EE410A274975
:10203000096891ED051AB1EE411AB0EE410A208906
:10204000102100F015F984ED060A94ED060A1F48E8
:102050000068383000EB8500D0ED000A30EE200A31
:1020600084ED070A1949096891ED061AF0EE410A54
:102070001649096891ED061AB1EE411AB0EE410A0F
:1020800060890C2100F0F4F884ED080A0F49096812
:1020900091ED071AF0EE410A0C49096891ED071A13
:1020A000B1EE411AB0EE410AA0890C2100F0E0F82F
:1020B00084ED090A284600F0F1F800BF681CC5B29B
:1020C000042DFFF658AF7CBDB8150024BCCD010827
:1020D0002DE9F0410546884616461F462C4614B1A8
:1020E0000EB1082F01D2BDE8F081002003E0315C81
:1020F0002154411CC8B20828F9D303F071FAE062F8
:10210000012084F8290084F8280000BFEBE70000D4
:102110002DE9FC4105460C4612A103C9CDE9000199
:10212000042D02DB0120BDE8FC81FB2C07D0FC2C38
:1021300005D0FD2C03D0FE2C01D00120F3E70B4885
:1021400000EB85068DF80740094909683031485D84
:10215000FEF768FD0746718808236A46FEF7C4FE4D
:10216000E1E70000FFFFFFFFFFFFFF0078C4010869
:10217000BCCD0108F0B52DED028B83B005460027DC
:1021800025B9012003B0BDEC028BF0BD002434E082
:1021900005EB840090ED000AB0EE408A1948006813
:1021A000243000EB440090F90100002803DAB1EE7E
:1021B000480AB0EE408A1348006890ED070AB0EE76
:1021C000401A1048006890ED070AB1EE400AF0EEA0
:1021D000400A0C20B0EE480AFFF7C8FD0646002072
:1021E000034640F6FF721146CDE900062046FFF790
:1021F0006DFE00B10127601CC4B2042CC8DB384658
:10220000C0E70000BCCD01087CB51648006890ED21
:10221000070AB0EE401A1348006890ED070AB1EEC5
:10222000400AF0EE400A0C209FED0F0AFFF79EFDDA
:1022300005460026002411E00020CDE9000504EB4E
:1022400044000A4A02EB0010018900231A46204686
:10225000FFF73CFE00B10126601CC4B2042CEBDB8E
:1022600030467CBDBCCD010800000000B81500243C
:10227000B0EE401A01228A40521E01EE902A30EE42
:10228000C12A00EE100AB8EE400A22EE000AF8EE6B
:10229000612A80EE222A32EE010A704710B500EB67
:1022A00040031F4C04EB0311012383401D4C2468A1
:1022B00023406BB90B891C4C24F810300B894B61FF
:1022C00001238340174C24682343164C236010BD20
:1022D0000B89154C34F810401A1BB2F5004F07DD7E
:1022E000124B53F820305B1E104C44F8203009E0AC
:1022F00012F5004F06DA0D4B53F820305B1C0B4CE7
:1023000044F820300B89084C24F810300C89074B16
:1023100033F8203004EB03434B6100BFD7E70000E4
:10232000B815002460000020580000207816002412
:10233000F0B502462AB121B12048006800F480308F
:1023400000B9F0BD22F01F0350181F3020F01F0508
:102350001846EC1A002C26DD00F01F0C0CEB0406CE
:10236000074600BF00BF00BFBFF34F8F00BF00BFD5
:1023700000BF00BFDFF848C0CCF800702037203E17
:10238000002EF7DC00BF00BF00BFBFF34F8F00BFC0
:1023900000BF00BF00BF00BF00BFBFF36F8F00BF13
:1023A00000BF00BF00BF00BF00BF00BF00BFBFF342
:1023B0004F8F00BF00BF00BF00BFC2E714ED00E0B9
:1023C00068EF00E0F0B502462AB121B1204800686C
:1023D00000F4803000B9F0BD22F01F0350181F3008
:1023E00020F01F051846EC1A002C26DD00F01F0C0B
:1023F0000CEB0406074600BF00BF00BFBFF34F8FC2
:1024000000BF00BF00BF00BFDFF848C0CCF80070BD
:102410002037203E002EF7DC00BF00BF00BFBFF317
:102420004F8F00BF00BF00BF00BF00BF00BFBFF3A2
:102430006F8F00BF00BF00BF00BF00BF00BF00BF65
:1024400000BFBFF34F8F00BF00BF00BF00BFC2E798
:1024500014ED00E068EF00E0F0B502462AB121B1CA
:102460002048006800F4803000B9F0BD22F01F035E
:1024700050181F3020F01F051846EC1A002C26DDDE
:1024800000F01F0C0CEB0406074600BF00BF00BFA6
:10249000BFF34F8F00BF00BF00BF00BFDFF848C0D1
:1024A000CCF800702037203E002EF7DC00BF00BFC4
:1024B00000BFBFF34F8F00BF00BF00BF00BF00BF12
:1024C00000BFBFF36F8F00BF00BF00BF00BF00BFE2
:1024D00000BF00BF00BFBFF34F8F00BF00BF00BFF2
:1024E00000BFC2E714ED00E05CEF00E072B600BF91
:1024F000FEE7000010B5024802F02CFA10BD000003
:102500002C06002410B5024802F024FA10BD000089
:102510002C06002410B5024802F01CFA10BD000081
:10252000CC06002410B5024802F014FA10BD0000D9
:10253000CC06002410B5024802F00CFA10BD0000D1
:102540006C07002410B5024802F004FA10BD000028
:102550006C07002410B501464A6B0868D0F8840067
:102560004FF6FC74A04340EA82000C68C4F8840073
:102570000868D0F8840020F47F04088F44EA004003
:102580000C68C4F88400886B02440868D0F888009E
:102590004FF6FC74A04340EA82000C68C4F888003F
:1025A0000868D0F8880020F4FE04888F44EA0040D0
:1025B0000C68C4F88800C86B02EB40020868D0F8C9
:1025C000A0004FF6FC74A04340EA82000C68C4F8F7
:1025D000A0000868D0F8A00020F4FE044020405A73
:1025E00044EA00400C68C4F8A000D1E9104004FBA4
:1025F00000220868D0F8B0004FF6FC74A04340EA0F
:1026000082000C68C4F8B0000868D0F8B00020F46C
:10261000FE04B1F8480044EA00400C68C4F8B00079
:10262000D1E9124004FB00220868D0F8AC004FF654
:10263000FC74A04340EA82000C68C4F8AC00D1E905
:10264000144004FB00220868D0F8F0004FF6FC7438
:10265000A04340EA82000C68C4F8F0000868D0F893
:10266000F00020F47C14B1F8580044EA00400C68F3
:10267000C4F8F000886D02EB40020868D0F8C00092
:102680004FF6FC74A04340EA82000C68C4F8C00016
:102690000868D0F8C00020F47C14B1F85C0044EA6B
:1026A00000400C68C4F8C0000868D0F8C00020F0F2
:1026B0007C5491F8600044EA00600C68C4F8C000E3
:1026C0002A4C486B04EB8000C866CC6E886B04EB28
:1026D00080040C670C6FC86B04EBC0044C67D1E935
:1026E000100460434C6F04EB80048C67D1E9120442
:1026F00060438C6F04EB8004CC67D1E91404604321
:10270000CC6F04EB8004802044504458886D04EB67
:10271000C004842044508C6EC86D60438424645887
:1027200004EB8004882044508C6E086E604388243B
:10273000645804EB80049020445040580C4CA04254
:1027400009D99831486840F020004860032001F81A
:102750009809012010BDCB6E02E0002018601B1DFF
:10276000902040589842F8D80020F3E700AC004091
:10277000FCD300402DE9F041054614461E46D1F831
:1027800004C0BCF1000F0AD1D1F810C0D1F8088004
:102790004CEA080CB1F800804CEA88430BE0D1F811
:1027A00010C04CF0804CD1F808804CEA080CD1F8ED
:1027B00000804CEA080391F82080D1F81CC04CEA54
:1027C000086CD1F818804CEA080CD1F814804CEA57
:1027D000080CB1F80C804CEA0847D5F868C00CFB2F
:1027E00006FCD5F8848008EB8C021360121D17607C
:1027F000121D002019E000F1030C14F80CC04FEA80
:102800000C6800F1020C14F80CC048EA0C4800F106
:10281000010C14F80CC048EA0C2C14F800804CEAA7
:10282000080CC2F800C0121D001DDFF81480D1F89A
:102830000CC018F80CC08445DDD8BDE8F08100005C
:10284000DCC3010880ED060AC0ED070A70470000EE
:1028500070B50A480468001D0568001D0668344408
:1028600054B108220649204607F07EFD042204499F
:102870001031284607F078FD70BD000000E8F11F18
:10288000460000242DE9F041044602F0A9FE8046EE
:1028900014B90120BDE8F08194F83500022808D071
:1028A0008020606500BF002084F8340000BF012054
:1028B000F0E7FE492068884249D0FC491831206879
:1028C000884244D0F9493031206888423FD0F749E6
:1028D0004831206888423AD0F44960312068884203
:1028E00035D0F24978312068884230D0EF499031B4
:1028F000206888422BD0ED49A8312068884226D034
:10290000EB492068884222D0E94918312068884282
:102910001DD0E74930312068884218D0E449483159
:102920002068884213D0E2496031206888420ED086
:10293000DF4978312068884209D0DD49903120682C
:10294000884204D0DA49A8312068884201D10120A8
:1029500000E0002068B12068006820F01E002168B7
:1029600008602068406920F080002168486125687F
:1029700006E02068006820F00E00216808602568E5
:10298000CA492068884270D0C849183120688842F6
:102990006BD0C64930312068884266D0C34948317F
:1029A0002068884261D0C1496031206888425CD08B
:1029B000BE4978312068884257D0BC4990312068A0
:1029C000884252D0B949A831206888424DD0B849D0
:1029D0002068884249D0B64918312068884244D0DE
:1029E000B3493031206888423FD0B149483120682E
:1029F00088423AD0AE4960312068884235D0AC492F
:102A000078312068884230D0A949903120688842C6
:102A10002BD0A749A8312068884226D0A549206834
:102A2000884222D0A3491431206888421DD0A14990
:102A300028312068884218D09E493C31206888425D
:102A400013D09C495031206888420ED09949643196
:102A50002068884209D0974978312068884204D09C
:102A600094498C312068884201D1012000E0002087
:102A700028B1206E006820F48070216E08608B49B8
:102A80002068884249D0894918312068884244D05A
:102A900086493031206888423FD0844948312068D7
:102AA00088423AD0814960312068884235D07F49D8
:102AB00078312068884230D07C4990312068884243
:102AC0002BD07A49A8312068884226D078492068DE
:102AD000884222D076491831206888421DD0744936
:102AE00030312068884218D07149483120688842C6
:102AF00013D06F496031206888420ED06C4978311C
:102B00002068884209D06A4990312068884204D000
:102B10006749A8312068884206D12068006820F003
:102B200001002168086005E02068006820F00100CD
:102B30002168086011E002F053FDA0EB08000528B1
:102B40000BD920206065032084F8350000BF0020E9
:102B500084F8340000BF01209CE6286800F00100E2
:102B60000028E8D151492068884249D04F4918319E
:102B70002068884244D04D493031206888423FD097
:102B80004A494831206888423AD048496031206833
:102B9000884235D0454978312068884230D0434951
:102BA0009031206888422BD04049A8312068884263
:102BB00026D03F492068884222D03D4918312068FC
:102BC00088421DD03A4930312068884218D03849AF
:102BD00048312068884213D03549603120688842E6
:102BE0000ED0334978312068884209D0304990317D
:102BF0002068884204D02E49A8312068884201D13B
:102C0000012000E0002040B1A66D94F85C0000F0C7
:102C10001F013F208840B06007E0A76D94F85C007A
:102C200000F01F0101208840786020492068884218
:102C300076D01E4918312068884271D01B49303146
:102C4000206888426CD0194948312068884267D092
:102C5000164960312068884262D014497831206872
:102C600088425DD0114990312068884258D00F4980
:102C7000A8312068884253D00D49206888424FD03F
:102C80000B491831206888424AD009493031206800
:102C9000884245D0064948312068884240D00449DE
:102CA0006031206888423BD0014905E010000240B5
:102CB00010040240085402587831206888422FD00E
:102CC0002549206888422BD0234918312068884242
:102CD00026D022492068884222D020491431206819
:102CE00088421DD01D4928312068884218D01B49D0
:102CF0003C312068884213D01849503120688842FE
:102D00000ED0164964312068884209D013497831C1
:102D10002068884204D011498C312068884201D152
:102D2000012000E0002068B1D4E919104860E06E8D
:102D300040B1E06E006820F48070E16E0860D4E974
:102D40001C104860012084F8350000BF002084F882
:102D5000340000BF00BF9DE5A004024008540258A3
:102D600070B504460CB9012070BD94F835000228F6
:102D700003D0802060650120F6E7DC4920688842A6
:102D800049D0DA4918312068884244D0D7493031D7
:102D9000206888423FD0D5494831206888423AD0DF
:102DA000D24960312068884235D0D04978312068D6
:102DB000884230D0CD499031206888422BD0CB4911
:102DC000A8312068884226D0C9492068884222D08C
:102DD000C7491831206888421DD0C5493031206864
:102DE000884218D0C24948312068884213D0C0496F
:102DF0006031206888420ED0BD4978312068884211
:102E000009D0BB4990312068884204D0B849A83124
:102E10002068884201D1012000E00020F0B30420A6
:102E200084F83500B149206888424BD0AF49183149
:102E30002068884246D0AD4930312068884241D070
:102E4000AA494831206888423CD0A84960312068AE
:102E5000884237D0A54978312068884232D0A349CA
:102E60009031206888422DD0A049A831206888423E
:102E700028D09F492068884224D09D491831206875
:102E800088421FD09A493031206888421AD0984928
:102E900048312068884215D0954900E020E0603133
:102EA000206888420ED0924978312068884209D043
:102EB0008F4990312068884204D08D49A83120681C
:102EC000884206D12068006820F00100216808606F
:102ED00009E12068006820F001002168086002E133
:102EE0002068006820F00E00216808607F49206893
:102EF000884249D07D4918312068884244D07B49B6
:102F00003031206888423FD0784948312068884273
:102F10003AD0764960312068884235D0734978319B
:102F20002068884230D071499031206888422BD087
:102F30006E49A8312068884226D06D4920688842B1
:102F400022D06B491831206888421DD06849303141
:102F50002068884218D0664948312068884213D0DA
:102F600063496031206888420ED061497831206819
:102F7000884209D05E4990312068884204D05C497B
:102F8000A8312068884206D12068006820F001003E
:102F90002168086005E02068006820F001002168D1
:102FA000086052492068884270D050491831206822
:102FB00088426BD04D4930312068884266D04B49F9
:102FC00048312068884261D0484960312068884291
:102FD0005CD0464978312068884257D043499031C7
:102FE0002068884252D04149A831206888424DD09B
:102FF0003F492068884249D03D49183120688842BD
:1030000044D03B493031206888423FD0384948316C
:10301000206888423AD0364960312068884235D0ED
:10302000334978312068884230D031499031206866
:1030300088422BD02E49A8312068884226D02D49BD
:103040002068884222D02B491431206888421DD044
:10305000284928312068884218D026493C31206808
:10306000884213D023495031206888420ED021492C
:1030700064312068884209D01E497831206888422E
:1030800004D01C498C312068884201D1012000E025
:103090000020D8B1206E006820F48070216E086096
:1030A000A56D94F85C0000F01F0101208840686065
:1030B000D4E919104860E06E40B1E06E006820F479
:1030C0008070E16E0860D4E91C104860012084F82B
:1030D000350000BF002084F8340000BF206D10B11F
:1030E0002046216D884700203EE600001000024087
:1030F00010040240085402582DE9F84F04460020FD
:103100000090FE4800684FF41651B0FBF1FAA66D2E
:10311000D4F858803768D8F80090F9492068884278
:1031200049D0F74918312068884244D0F4493031F9
:10313000206888423FD0F2494831206888423AD01E
:10314000EF4960312068884235D0ED4978312068F8
:10315000884230D0EA499031206888422BD0E84933
:10316000A8312068884226D0E6492068884222D0CB
:10317000E4491831206888421DD0E2493031206886
:10318000884218D0DF4948312068884213D0DD4991
:103190006031206888420ED0DA4978312068884250
:1031A00009D0D84990312068884204D0D549A83147
:1031B0002068884201D1012000E0002000287DD055
:1031C00094F85C0000F01F01082088403840002877
:1031D00068D0CB492068884249D0C9491831206855
:1031E000884244D0C6493031206888423FD0C44923
:1031F0004831206888423AD0C1496031206888420D
:1032000035D0BF4978312068884230D0BC499031F0
:10321000206888422BD0BA49A8312068884226D03D
:10322000B8492068884222D0B649183120688842BF
:103230001DD0B44930312068884218D0B149483196
:103240002068884213D0AF496031206888420ED090
:10325000AC4978312068884209D0AA499031206869
:10326000884204D0A749A8312068884204D1206848
:10327000006800F0040003E02068006800F0080027
:1032800080B12068006820F004002168086094F88C
:103290005C0000F01F0108208840B060606D40F0C5
:1032A0000100606594F85C0000F01F010120884077
:1032B0003840E8B392492068884200E0B7E24BD03A
:1032C0008F4918312068884246D08D4930312068B6
:1032D000884241D08A494831206888423CD0884998
:1032E00060312068884237D085497831206888422B
:1032F00032D083499031206888422DD08049A8314E
:103300002068884228D07F492068884224D07D499F
:103310001831206888421FD07A49303120688842AD
:103320001AD0784948312068884215D0754900E0A4
:1033300026E06031206888420ED0724978312068DA
:10334000884209D06F4990312068884204D06D4985
:10335000A8312068884204D12068406900F08000CC
:1033600002E020680068002050B194F85C0000F092
:103370001F0101208840B060606D40F00200606570
:1033800094F85C0000F01F01042088403840E8B346
:103390005B49206888424BD05949183120688842DF
:1033A00046D0574930312068884241D0544948318D
:1033B000206888423CD0524960312068884237D02A
:1033C0004F4978312068884232D04D499031206889
:1033D00088422DD04A49A8312068884228D04949DE
:1033E0002068884224D047491831206888421FD07D
:1033F00044493031206888421AD042494831206817
:10340000884215D03F496031206800E024E08842BE
:103410000ED03C4978312068884209D03949903132
:103420002068884204D03749A8312068884204D1F6
:103430002068006800F0020002E0206800680020B8
:1034400050B194F85C0000F01F0104208840B06087
:10345000606D40F00400606594F85C0000F01F01AE
:10346000102088403840E8B325492068884251D070
:1034700023491831206888424CD0214930312068D6
:10348000884247D01E4948312068884242D01C49B2
:103490006031206888423DD01949783120688842DF
:1034A00038D0174990312068884233D01449A83168
:1034B000206888422ED01349206888422AD01149BA
:1034C00018312068884225D00E4930312068884262
:1034D00020D00C494831206888421BD0094960310E
:1034E000206800E04DE0884214D006497831206819
:1034F00088420FD003499031206805E08000002405
:103500001000024010040240884203D0FE492068A7
:10351000884204D12068006800F0080003E02068B9
:10352000006800F0040060B394F85C0000F01F0134
:1035300010208840B0602068006800F4802080B1CE
:103540002068006800F4002028B9206CC8B120462B
:10355000216C884715E0A06C98B12046A16C884783
:103560000FE02068006800F4807028B920680068C7
:1035700020F0080021680860206C10B12046216C02
:10358000884794F85C0000F01F01202088403840F4
:1035900000287DD0DD492068884249D0DB491831B8
:1035A0002068884244D0D9493031206888423FD0D1
:1035B000D6494831206888423AD0D44960312068E1
:1035C000884235D0D14978312068884230D0CF49FF
:1035D0009031206888422BD0CC49A831206888429D
:1035E00026D0C949A8392068884221D0C6499039D7
:1035F000206888421CD0C44978392068884217D096
:10360000C14960392068884212D0BF4948392068D2
:1036100088420DD0BC4930392068884208D0BA4968
:1036200018392068884203D0B7492068884204D1FD
:103630002068006800F0100003E02068006800F0D7
:10364000020028B394F85C0000F01F01202088409D
:10365000B06094F8350004282DD12068006820F06F
:103660001600216808602068406920F08000216809
:103670004861206C08B9A06C28B12068006820F06F
:1036800008002168086094F85C0000F01F0100E069
:103690003FE03F208840B060012084F8350000BF43
:1036A000002084F8340000BF206D10B12046216D49
:1036B0008847BDE8F88F2068006800F4802080B15A
:1036C0002068006800F4002028B9606C08B3204628
:1036D000616C88471DE0E06BD8B12046E16B8847FC
:1036E00017E02068006800F4807068B920680068FE
:1036F00020F0100021680860012084F8350000BF28
:10370000002084F8340000BFE06B10B12046E16B6C
:103710008847606D00287AD0606D00F00100E8B342
:10372000042084F835007949206888424BD07749D5
:1037300018312068884246D0744930312068884268
:1037400041D072494831206888423CD06F4960318D
:103750002068884237D06D4978312068884232D05D
:103760006A499031206888422DD06849A831206884
:10377000884228D06449A8392068884223D0624909
:103780009039206888421ED05F4978392068884285
:1037900019D05D4960392068884200E040E012D0CD
:1037A00059494839206888420DD057493039206836
:1037B000884208D0544918392068884203D05249B9
:1037C0002068884206D12068006820F00100216846
:1037D000086005E02068006820F0010021680860AA
:1037E00000BF0098401C0090504500D905E02068BB
:1037F000006800F001000028F3D100BF20680068D5
:1038000000F0010020B1032084F8350003E00DE052
:10381000012084F8350000BF002084F8340000BF88
:10382000E06C002802D02046E16C8847D9E1384995
:103830002068884222D036491431206888421DD041
:10384000334928312068884218D031493C312068FA
:10385000884213D02E495031206888420ED02C491E
:1038600064312068884209D029497831206888422B
:1038700004D027498C312068884201D1012000E022
:1038800000200028D2D02068056894F85C0000F081
:103890001F010420884000EA0900D8B305F00400A5
:1038A000C0B394F85C0000F01F0104208840C8F801
:1038B000040005F4004080B105F4803030B9A06CFC
:1038C0000028B3D02046A16C88478AE1206C0028EC
:1038D000ACD02046216C884783E105F02000E8BB8E
:1038E0000A492068884253D0084918312068884224
:1038F0004ED0064930312068884249D003494831CA
:103900002068884244D006E0B8040240100002401B
:10391000085402584FE0B44960312068884237D0DB
:10392000B14978312068884232D0AF49903120685F
:1039300088422DD0AC49A8312068884228D0AB49B4
:103940002068884224D0A9491831206888421FD0B5
:10395000A6493031206888421AD000E025E0A3490A
:1039600048312068884213D0A049603120688842DD
:103970000ED09E4978312068884209D09B49903109
:103980002068884204D09949A8312068884206D12D
:103990002068006820F008002168086005E02068C1
:1039A000006820F0040021680860206C10B32046F5
:1039B000216C884715E194F85C0000F01F0102209B
:1039C000884000EA0900E8B305F00200D0B394F89B
:1039D0005C0000F01F0102208840C8F8040005F4D4
:1039E000004070B105F4803028B9606C10B12046F9
:1039F000616C8847F5E0E06BF0B32046E16B8847E7
:103A0000EFE005F02000C0BB7749206888424ED027
:103A1000754918312068884249D07349303120688F
:103A2000884244D070494831206888423FD06E496E
:103A30006031206888423AD06B49783120688842EA
:103A400035D000E04EE068499031206888422ED0A1
:103A50006549A8312068884229D064492068884295
:103A600025D0624918312068884220D05F49303122
:103A7000206888421BD001E06EE02DE05B494831B0
:103A80002068884213D059496031206888420ED09E
:103A9000564978312068884209D0544990312068CD
:103AA000884204D05149A8312068884206D1206854
:103AB000006820F014002168086005E020680068B4
:103AC00020F00A0021680860012084F8350000BF5A
:103AD000002084F8340000BFE06BE8B32046E16BBF
:103AE00088477EE094F85C0000F01F0108208840C1
:103AF00000EA090080B305F0080068B33A4920687D
:103B000088424BD0384918312068884246D036491F
:103B100030312068884241D033494831206888429A
:103B20003CD0314960312068884237D02E49783105
:103B30002068884232D02C499031206888422DD0AC
:103B40002949A8312068884228D02849206888421D
:103B500024D02649183100E043E0206888421DD077
:103B6000224930312068884218D0204948312068E5
:103B7000884213D01D496031206888420ED01B490D
:103B800078312068884209D01849903120688842ED
:103B900004D01649A8312068884206D12068006800
:103BA00020F01C002168086005E02068006820F013
:103BB0000E002168086094F85C0000F01F010120ED
:103BC0008840C8F804000120606584F8350000BF13
:103BD000002084F8340000BFE06C10B12046E16C96
:103BE000884700BF65E50000100002401004024055
:103BF0002DE9F041044601F0F3FC804614B90120A0
:103C0000BDE8F081FE492068884249D0FC4918315E
:103C10002068884244D0FA493031206888423FD039
:103C2000F7494831206888423AD0F5496031206828
:103C3000884235D0F24978312068884230D0F04946
:103C40009031206888422BD0ED49A8312068884205
:103C500026D0EC492068884222D0EA4918312068F1
:103C600088421DD0E74930312068884218D0E549A4
:103C700048312068884213D0E24960312068884288
:103C80000ED0E04978312068884209D0DD49903172
:103C90002068884204D0DB49A8312068884201D1DD
:103CA000012000E00020002873D0606A00B100BF4E
:103CB000022084F8350000BF002084F8340000BFE3
:103CC000CF492068884249D0CD49183120688842C0
:103CD00044D0CB493031206888423FD0C849483170
:103CE000206888423AD0C64960312068884235D081
:103CF000C34978312068884230D0C149903120686A
:103D000088422BD0BE49A8312068884226D0BD49C0
:103D10002068884222D0BB491831206888421DD0D3
:103D2000B84930312068884218D0B64948312068F7
:103D3000884213D0B3496031206888420ED0B1491F
:103D400078312068884209D0AE4990312068884295
:103D500004D0AC49A8312068884206D120680068A8
:103D600020F001002168086005E02068006820F06C
:103D70000100216808600DE001F032FCA0EB0800B2
:103D8000052807D920206065032084F8350001202C
:103D900036E769E02068006800F001000028EBD1F8
:103DA0002068056898480540D4E902010843216964
:103DB000084361690843A1690843E1690843216A2E
:103DC00008430543606A042803D1D4E90B01084382
:103DD00005436068292802D360682E2817D96068D7
:103DE0003F2802D36068422811D96068472802D36F
:103DF000606848280BD960684F2802D36068522851
:103E000005D96068742804D36068772801D8012038
:103E100000E0002008B145F48015206805602068A6
:103E2000456925F00705606A0543606A04280DD1DD
:103E3000A06A0543E06A48B12046FDF7F5F928B1CC
:103E400040206065012084F83500D9E6206845618E
:103E50002046FDF7C5F8064694F85C0000F01F0107
:103E60003F208840B0609EE068492068884222D0A8
:103E700066491431206888421DD064492831206881
:103E8000884218D061493C312068884213D05F498C
:103E90005031206888420ED05C49643120688842E5
:103EA00009D05A4978312068884204D057498C316A
:103EB0002068884201D1012000E00020E0B353498E
:103EC0002068884222D051491431206888421DD090
:103ED0004E4928312068884218D04C493C3120682E
:103EE000884213D049495031206888420ED0474952
:103EF00064312068884209D044497831206888427A
:103F000004D042498C312068884201D1012000E070
:103F1000002000B100BF022084F8350000BF00205F
:103F200084F8340000BF2068056839480540A0685F
:103F3000402802D1102106E02EE0A068802801D19F
:103F4000C10100E00021E06841EAD001206941EAB6
:103F5000D001606941EAD001A06941EAD001E0697D
:103F600041EAD001206A41EA10100543206805604B
:103F700026492068401A1421B0FBF1F08000E0656A
:103F80002046FDF72DF8074694F85C0000F01F016D
:103F900001208840786006E040206065032084F8B6
:103FA000350001202CE61649206888427AD0144951
:103FB00018312068884275D0114930312068884214
:103FC00070D00F494831206888426BD00C4960316D
:103FD0002068884266D00A4978312068884261D0DA
:103FE00007499031206888425CD00549A831206893
:103FF000884257D003492068884253D0014909E0DC
:1040000010000240100402403F8010FE0854025885
:104010000F00FEFF18312068884243D037492068DE
:1040200088423FD035491831206888423AD0334918
:1040300030312068884235D0304948312068884284
:1040400030D02E496031206888422BD02B497831FE
:104050002068884226D02A492068884222D02849F0
:104060001431206888421DD02549283120688842B3
:1040700018D023493C312068884213D02049503160
:10408000206888420ED01E4964312068884209D0D9
:104090001B4978312068884204D019498C31206846
:1040A000884201D1012000E0002000B32046FDF746
:1040B0000DF8A068802801D1002060602079216E71
:1040C0000860D4E919104860606860B16068082829
:1040D00009D82046FDF75CF80020E16E0860D4E9BD
:1040E0001C10486003E00020E06620676067002045
:1040F0006065012084F83500002081E5400402401D
:10410000085402582DE9F04104460D4616461F4654
:104110004FF0000814B90120BDE8F08100BF94F809
:104120003400012801D10220F6E7012084F8340090
:1041300000BF94F8350001287ED1022084F83500B4
:1041400000206065E4492068884249D0E24918317E
:104150002068884244D0E0493031206888423FD00E
:10416000DD494831206888423AD0DB496031206817
:10417000884235D0D84978312068884230D0D64935
:104180009031206888422BD0D349A83120688842DA
:1041900026D0D2492068884222D0D04918312068E0
:1041A00088421DD0CD4930312068884218D0CB4993
:1041B00048312068884213D0C8496031206888425D
:1041C0000ED0C64978312068884209D0C349903161
:1041D0002068884204D0C149A8312068884206D1AD
:1041E0002068006820F001002168086005E0206870
:1041F000006820F00100216808603B4632462946ED
:104200002046FDF769F8B449206888424BD0B2498E
:1042100018312068884246D0AF4930312068884242
:1042200041D0AD494831206888423CD0AA4960312C
:104230002068884237D000E042E1A7497831206801
:10424000884230D0A4499031206888422BD0A249BE
:10425000A8312068884226D0A0492068884222D010
:104260009E491831206888421DD09C493031206811
:10427000884218D0994948312068884213D097491C
:104280006031206888420ED0944978312068884295
:1042900009D0924990312068884204D08F49A831D2
:1042A0002068884201D1012000E0002080B1206810
:1042B000006820F01E0040F0160021680860206CA5
:1042C000B0B12068006840F00800216808600FE085
:1042D0002068006820F00E0040F00A0021680860A5
:1042E000206C28B12068006840F004002168086054
:1042F00079492068884270D077491831206888420F
:104300006BD0754930312068884266D07249483197
:104310002068884261D070496031206888425CD052
:104320006D4978312068884257D06B4990312068B8
:10433000884252D06849A831206888424DD06749E8
:104340002068884249D0654918312068884244D0A5
:1043500062493031206888423FD060494831206846
:1043600088423AD05D4960312068884235D05B4947
:1043700078312068884230D058499031206888428E
:104380002BD05649A8312068884226D0544920684D
:10439000884222D052491431206888421DD05049A9
:1043A00028312068884218D04D493C312068884225
:1043B00013D04B495031206888420ED048496431AF
:1043C0002068884209D0464978312068884204D064
:1043D00043498C312068884201D1012000E000204F
:1043E00090B1206E006800F4803028B1206E006823
:1043F00040F48070216E0860E06E28B1E06E0068C5
:1044000040F48070E16E086033492068884249D0EA
:10441000314918312068884244D02F493031206812
:1044200088423FD02C494831206888423AD02A49F6
:1044300060312068884235D0274978312068884229
:1044400030D025499031206888422BD02249A831AC
:104450002068884226D021492068884222D01F49FE
:104460001831206888421DD01C49303120688842AC
:1044700018D01A4948312068884213D01749603152
:10448000206888420ED0154978312068884209D0CA
:10449000124990312068884204D01049A831206820
:1044A000884206D12068006840F001002168086059
:1044B00010E02068006840F001002168086009E011
:1044C0004FF40060606500BF002084F8340000BF36
:1044D0004FF0010840461FE6100002401004024061
:1044E0000854025870B5044601F07AF8064625468D
:1044F000681C10B104480078054400BF01F070F852
:10450000801BA842FAD370BD7C00002430B503465E
:1045100093F89840012C01D0022C3ED11868806D90
:10452000084030B91868C06D40F001001D68E865AA
:104530000EE01868806D0840884206D11868C06D8A
:1045400040F002001D68E86502E003201D68E86590
:1045500001F4007030B11868D0F8E00010431D6815
:10456000C5F8E00001F4806030B11868D0F8E400CC
:1045700010431D68C5F8E40000BF1868406D0B4D7E
:104580000D4028431D6868650948006840EA91703D
:10459000074D286000BF002030BDD3F89C0040F0DC
:1045A0000200C3F89C000120F6E70000FFFFCF3FA8
:1045B00014A800402DE9F04104460E4617467068E5
:1045C00000B900E000BF94F89800022832D12068BA
:1045D000D0F8C00000F07C5040B9D4F89C0040F006
:1045E0002000C4F89C000120BDE8F0812068D0F8CC
:1045F000C40000F4001038B1D4F89C0040F40070FE
:10460000C4F89C000120EFE72068D0F8C400C0F394
:1046100004452B463A4631462046FEF7ABF80120CA
:10462000A8402168C1F8D0000120A840C4F8940037
:104630000020D9E7D4F89C0040F00800C4F89C00A2
:104640000120D1E77047F0B5024692F89860012E3C
:1046500001D0022E43D1C868072800D100BF0868E6
:1046600018BBC868072800D000BFC86807280BD14E
:10467000088A4FF0605747EA0040CF6940EA0720B8
:104680008F6940EA07040AE0087A80070F7B40EA56
:10469000C7600F8A40EA07404F6940EA0704D76EB7
:1046A000486807EB80031C6017E0C868072800D043
:1046B00000BF0F7B086940EA4774C868072801D12A
:1046C0008D6903E00F7A486940EA8775176F48687B
:1046D00007EBC0031C601B1D1D600020F0BDD2F85D
:1046E0009C0040F00200C2F89C000120F6E77047F1
:1046F00070B506460D4605F0007000B970BD304635
:10470000FCF79EFA0446002C00DAF7E72046FCF797
:10471000D5FB012004EBC40101EB4411034A02EB79
:10472000810181F8880000BFE8E70000A4A700200D
:104730000246402905D11368D3F8A43003F07F0066
:1047400004E01368D3F8B43003F07F007047000032
:104750002DE9F04304460D469C46002394F89880CA
:10476000B8F1020F74D1402D38D12068D0F8A000E4
:1047700000F4FE0040B9D4F89C0040F02000C4F8DA
:104780009C000120BDE8F0832068D0F8A40000F070
:104790007F0038B9D4F89C0040F48070C4F89C00C5
:1047A0000120EFE72068D0F8A400C0F3006040B11A
:1047B0002068D0F8A0004FF00109B9EBD07F00D1FC
:1047C00001232068D0F8A400C0F305200344606CE6
:1047D0005843D4F8749009EB80014BE0412D38D157
:1047E0002068D0F8B00000F4FE0038B9D4F89C007E
:1047F00040F02000C4F89C000120C3E72068D0F8F6
:10480000B40000F07F0038B9D4F89C0040F4807008
:10481000C4F89C000120B5E72068D0F8B400C0F3CC
:10482000006040B12068D0F8B0004FF00109B9EB4A
:10483000D07F00D101232068D0F8B400C0F3052058
:104840000344E06C5843D4F8789009EB800111E000
:104850006DE0206DA84207D8D4F89C0040F02000FD
:10486000C4F89C0001208DE7606D6843D4F87C900B
:1048700009EB8001086800F080405060506820B962
:104880000868C0F38A40106003E0086820F06040C8
:104890001060086800F000509060086800F0004068
:1048A0001061091D088880B2D0610868C0F3034018
:1048B000D060086800F480105061086800F40010AF
:1048C00090610868C0F3066010620868C00F50620B
:1048D000091D0F46002603E0B85D0CF80600761CA3
:1048E000DFF85C90D06819F80000B042F4D8402D91
:1048F00003D12068C0F8A83017E0412D03D120680B
:10490000C0F8B83011E0202D06D20120A840D4F81C
:104910000090C9F8980008E005F01F09012000FA8E
:1049200009F0D4F80090C9F89C0000202AE7D4F8D8
:104930009C0040F00800C4F89C00012022E7000021
:10494000DCC3010801460A68D2F8C42002F03F0027
:10495000704770472DE9F04F8DB00446EF4800686E
:104960008707EE48001D006807EA80772068006D21
:1049700000F470482068406D00EA08082068006D67
:1049800000F00F092068406D00EA09092068006DF9
:1049900000F0F00A2068406D00EA0A0A2068006D05
:1049A00000F0715B2068406D00EA0B0B2068006D21
:1049B00000F060700C902068406D0C9908400C90DD
:1049C0002068456D2068066DC5F3002070B1C6F300
:1049D000002058B100BF4FF48070216808650020A6
:1049E000CE49086000BF2046FFF7B3FFC5F3802023
:1049F000C8B1C6F38020B0B12068D0F8DC000A90BE
:104A00002068D0F8E4000A9908400A9000BF4FF4EB
:104A10008060216808650020C049086000BF20460A
:104A20000A9900F0DBFC67B100BFBD48384021683F
:104A30000865B80FB949086000BF39462046FFF73E
:104A400001FEB8F1000F0ED000BFB54808EA000023
:104A5000216808654FEA9870B049086000BF414678
:104A6000204600F0BDFCB9F1000F0ED000BFAC48ED
:104A700009EA0000216808654FEA9970A7490860B3
:104A800000BF4946204600F0DBFBBAF1000F0ED014
:104A900000BFA3480AEA0000216808654FEA9A703F
:104AA0009E49086000BF5146204600F025FCC5F332
:104AB000C02070B1C6F3C02058B100BF4FF40060F1
:104AC0002168086500209549086000BF204600F075
:104AD00088FCC5F34020C8B1C6F34020B0B12068BF
:104AE000D0F8D8000B902068D0F8E0000B9908406F
:104AF0000B9000BF4FF400702168086500208749C3
:104B0000086000BF20460B9900F069FCC5F3C04067
:104B100070B1C6F3C04058B100BF4FF40020216807
:104B2000086500207D49086000BF204600F086FB34
:104B3000C5F3004070B1C6F3004058B100BF4FF458
:104B400080302168086500207449086000BF204655
:104B500000F043FCC5F3804070B1C6F3804058B10B
:104B600000BF4FF480202168086500206B49086071
:104B700000BF204600F030FCC5F3404088B1C6F3CA
:104B8000404070B100BF4FF400302168086500203C
:104B90006249086000BFD4F89C0040F08000C4F86F
:104BA0009C000C9870B100BF5D490C9808402168CA
:104BB00008650C98800F5949086000BF20460C9981
:104BC000FFF796FDBBF1000F10D000BF54480BEA71
:104BD0000000216808654FEA9B705049086000BFDB
:104BE000D4F89C0040EA0B00C4F89C004D492068B2
:104BF00088427DD16068806800F00300002877D08B
:104C00006068006A00F00F0009906068406A0999C6
:104C1000084009906068006A00F030000890606801
:104C2000406A0899084008906068006A00F4C07003
:104C300007906068406A0799084007906068006ABA
:104C400000F4FC4006906068406A069908400690AF
:104C50006068006A00F4F02005906068406A059979
:104C6000084005906068406A02906068006A0190A0
:104C7000099830B10998616808622046099900F0E6
:104C8000A8FB089830B10898616808622046089926
:104C900000F0A1FB0298C0F38010A0B10198C0F30E
:104CA000801080B16068C06B000C04906068C06BBD
:104CB00000F03F0003904020616808622046DDE973
:104CC000032100F087FB079830B1079861680862FC
:104CD0002046079900F07CFB069840B10698616871
:104CE0000862D4F89C0006990843C4F89C0000E0D0
:104CF0000AE0059840B1059861680862D4F89C0004
:104D000005990843C4F89C00D4F89C0010B12046D3
:104D1000FFF7EDFC0DB0BDE8F08F000010A80040DB
:104D2000FFFFCF3F00A0004070B594B004464C2276
:104D3000B34901A8FBF779FB14B9012014B070BD89
:104D4000B0492068884203D1206800F58070606017
:104D5000A068B0F5407F00D100BF206C00B100BF5B
:104D6000A06C00B100BF206D00B100BF206E00B18B
:104D700000BFD4E91710084400B100BF94F89800B0
:104D800028B9002084F89900204600F03DF92068F9
:104D9000806920F010002168886100F021FC054640
:104DA0000EE000F01DFC401B0A2809D99834606809
:104DB00040F001006060032004F898090120BDE77D
:104DC0002068806900F008000828EAD0206880691F
:104DD00040F001002168886100F002FC05460EE009
:104DE00000F0FEFB401B0A2809D99834606840F0A7
:104DF00001006060032004F8980901209EE7206804
:104E0000806900F001000028EAD02068806940F045
:104E1000020021688861207C012806D12068806911
:104E200020F040002168886105E02068806940F03A
:104E3000400021688861607C012806D12068806973
:104E400040F480402168886105E02068806920F492
:104E5000804021688861A07C012806D12068806993
:104E600020F480502168886105E02068806940F462
:104E70008050216888612068806920F44070A168B2
:104E80000843216888612068806920F0A4002168B7
:104E900088612068006920F0100021680861E068DE
:104EA000012806D12068806940F0040021688861EB
:104EB00020E0E068F0B1E068022815D02068806941
:104EC00040F08000216888612068006940F010008F
:104ED00021680861E06803280CD12068806940F0EF
:104EE00020002168886105E02068806940F020008A
:104EF00021688861207E401E4106E069401E41EA2B
:104F00000020216A491E0843A18A491E40EA014047
:104F10002168C861A068B0F5407F0FD1A06A401E2B
:104F2000E16A491E40EA0121206B401E41EA00115E
:104F3000A08C401E41EA00402168C860206E38B154
:104F40002068D0F8C000616E08432168C1F8C00035
:104F5000D4E91710084460B12068D0F8C80020F0E8
:104F6000070001AAA16E52F8211008432168C1F878
:104F7000C800206C60B12068D0F8BC0020F00700A9
:104F800001AA616C52F8211008432168C1F8BC00E5
:104F9000A06C68B12068D0F8BC0020F0700101AAB4
:104FA000E06C52F8200041EA00102168C1F8BC0012
:104FB000206D68B12068D0F8BC0020F4E06101AA3F
:104FC000606D52F8200041EA00202168C1F8BC0061
:104FD0000C492068884205D16068806820F0030091
:104FE00061688860002044F8940FA060012020715F
:104FF000943C2046FDF7AEFA064630469EE6000099
:10500000ECC3010800A0004010B5B6B0044614215E
:1050100030A8FBF731FAB82102A8FBF72DFA804936
:105020002068884250D14FF400410020CDE90210A1
:105030001D9002A801F046FD08B1FDF757FA794826
:105040000068401C774908600846006801280DD1B7
:1050500000BF7548006840F48070734908600846D6
:10506000006800F48070019000BF00BF00BF6E4870
:105070000C38006840F008006B490C39086008469D
:10508000006800F00800019000BF00BF03203090CE
:10509000022031900020329033900920349030A9C2
:1050A000624800F09FF900220521132000F050FB18
:1050B000132000F039FB00220521152000F048FBE9
:1050C000152000F031FBA9E059492068884250D1F1
:1050D0004FF400410020CDE902101D9002A801F01C
:1050E000F1FC08B1FDF702FA4E480068401C4D493A
:1050F00008600846006801280DD100BF4A480068D2
:1051000040F48070484908600846006800F48070E8
:10511000019000BF00BF00BF43480C38006840F05A
:10512000020041490C3908600846006800F002009E
:10513000019000BF00BF602030900220319000201D
:10514000329033900920349030A93A4800F04AF95F
:1051500000220521142000F0FBFA142000F0E4FAEC
:1051600000220521162000F0F3FA162000F0DCFAE8
:1051700054E031492068884250D14FF4004100206A
:10518000CDE902101D9002A801F09CFC08B1FDF7CA
:10519000ADF924480068401C2249086008460068B0
:1051A00001280DD100BF2048006840F480701E49DE
:1051B00008600846006800F48070019000BF00BFDE
:1051C00000BF19480C38006840F0080016490C3937
:1051D00008600846006800F00800019000BF00BFAA
:1051E0004FF44050309002203190002032903390A4
:1051F0000520349030A90D4800F0F4F80022052174
:105200009F2000F0A5FA9F2000F08EFA00220521D1
:10521000A02000F09DFAA02000F086FA36B010BD64
:1052200000A0004014000020EC440258000C02587A
:1052300000A400400004025800D400407047000061
:105240002DE9F0419AB080460F4607F0010010B9F1
:105250001AB0BDE8F0814046FBF7F2FC0646002E8E
:1052600000DAF5E706EBC60000EB4610214901EB3A
:10527000800436E06B4610AA40214046FFF768FAEA
:1052800000B134E054F88C0F401C2060109860602E
:105290008C3C119820B9129810B91398082800D0A6
:1052A0001FE0002518E005EB450054F82000109998
:1052B000884210D1139AD3B205EB450204EB820267
:1052C0001099906805EB450204EB8202D2F804C005
:1052D0006A46E04703E06D1C206EA842E3D800BF99
:1052E00000BF40214046FFF723FA0028C2D100BF8B
:1052F00000BFADE7A4A700207047014691F89800D1
:1053000001280CD1022081F898000868806920F0FB
:1053100001000A6890610020C1F89C007047D1F834
:105320009C0040F00400C1F89C000120F6E7014613
:10533000002291F89800022842D10868806940F064
:1053400001000B6898610CE0322A09D9983148684D
:1053500040F001004860032001F8980901207047DF
:10536000521C0868806900F001000028ECD000227F
:105370000868806920F010000B6898610CE0322A00
:1053800009D99831486840F001004860032001F8CD
:1053900098090120E3E7521C0868806900F00800C2
:1053A0000828ECD00868806940F002000B6898611A
:1053B0000020C1F89400012081F898000020CEE779
:1053C000D1F89C0040F00800C1F89C000120C6E71D
:1053D0007047704770477047704770477047704715
:1053E00070477047F8B502460B4600216D4DD2E07C
:1053F00001278F401E6806EA0704002C72D01E7930
:1054000006F00306012E04D01E7906F00306022ED4
:1054100013D190684F000326BE40B0434F00DE68B2
:10542000BE4030439060506801268E40B0431E79E4
:10543000C6F300168E40304350601E7906F0030616
:10544000032E09D0D0684F000326BE40B0434F0062
:105450009E68BE403043D0601E7906F00306022EDF
:1054600013D1CF0802F1200656F827004E07F70E99
:105470000F26BE40B0434F07FF0E1E69BE403043AB
:10548000CF0802F1200646F8270010684F000326D7
:10549000BE40B0431E7906F003064F00BE403043C5
:1054A00010605E6806F44036002E73D000BF3E4E9A
:1054B000366846F002063C4F3E603E46366806F0CF
:1054C0000206009600BF00BF384E8F0856F827002E
:1054D0008E07370F0F26BE40B043354EB24202D181
:1054E000002629E056E0334EB24201D1012623E0E6
:1054F000314EB24201D102261EE0304EB24201D1FD
:10550000032619E02E4EB24201D1042614E02D4E9E
:10551000B24201D105260FE02B4EB24201D1062640
:105520000AE02A4EB24201D1072605E0284EB242D7
:1055300001D1092600E00A268F073F0FBE40304305
:105540001A4E8F0846F827004FF0B0463068A04347
:105550005E6806F4801606B120434FF0B046306016
:105560007068A0435E6806F4001606B120434FF051
:10557000B04670606868A0435E6806F4003606B105
:10558000204368602868A0435E6806F4803606B150
:1055900020432860491C1E68CE40002E7FF428AFAF
:1055A000F8BD000080000058F44402580804005878
:1055B000000002580004025800080258000C02586B
:1055C000001002580014025800180258001C02581B
:1055D000002402580AB1816101E00B048361704725
:1055E0000148006870470000740000240348006808
:1055F0000349097808440149086070477400002491
:105600007C00002410B5032000F0E0F802F0CEFA90
:1056100010490968C1F303210F4A515C01F01F01D1
:1056200020FA01F40B48006800F00F001146085CF6
:1056300000F01F0024FA00F00849086008480460E0
:105640000F2000F00FF808B1012010BD00F054F851
:105650000020FAE71844025860C4010884000024BE
:105660008000002470B58AB00446102C0AD20022B3
:105670002146A12000F06CF8A12000F055F819484F
:10568000046002E001200AB070BD00BF1648006847
:1056900040F08070144908600846006800F080708F
:1056A000009000BF00BF01A902A802F0FFF902F0BC
:1056B0006BFA45000D48B5FBF0F0461E0C480D494D
:1056C000086040F2E7310B48C1604660002101618B
:1056D000816003F0CBFB18B9064803F021FCD2E748
:1056E0000120D0E778000024EC44025840420F002B
:1056F00000E000406417002008B500BF09480068BA
:1057000040F00200074908600846006800F0020007
:10571000009000BF00BF00220F21901E00F018F87B
:1057200008BD0000F44402580146084600280DDB7D
:1057300000BF00BF00F01F0301229A4043099B00F5
:1057400003F1E023C3F8002100BF00BF00BF704792
:105750002DE9F05F80460D4616460EF087FF07469E
:1057600039462A46334601F00700C0F1070ABAF16C
:10577000040F02D94FF0040A01E0C0F1070AD14634
:1057800000F1040ABAF1070F02D24FF0000A01E05B
:10579000A0F1030AD4464FF0010A0AFA09FAAAF165
:1057A000010A0AEA020A0AFA0CFA4FF0010B0BFA94
:1057B0000CFBABF1010B0BEA030B4AEA0B0421468D
:1057C00040460EF05BFFBDE8F09F000000BF00F018
:1057D0000702064B19684FF6FF031940044B0B43B1
:1057E00043EA0221014B196000BF70470CED00E055
:1057F0000000FA0501460A680120C1F8D80400201B
:1058000081F8CC04906940F000609061506D024BCB
:10581000184350650020704703000010704702468F
:105820001068416200207047F0B5034615461868BD
:10583000446A21B944EA05401E68B06219E018685C
:10584000806A04EB1044002208E0186800F58270BA
:1058500050F8220004EB1044501CC2B2481E904283
:10586000F3D844EA0547186800F582704E1E40F8E8
:1058700026700020F0BD10B50446D4F8E0040DF009
:1058800021F910BD70B504460D4605EBC50304F1C2
:10589000140101EB8301CA682946D4F8E0040DF035
:1058A0000CF870BD70B504460D4605EBC50304F554
:1058B000157101EB8301CA682946D4F8E0040DF0A4
:1058C00080F870BD10B50446D4F8E0040DF0FDF882
:1058D00010BD2DE9F04104460D4605F080008028FA
:1058E00008D105F00F0000EBC00104F1140000EB3B
:1058F000810607E005F00F0000EBC00104F515700C
:1059000000EB8106314620680EF034FB074638462E
:10591000BDE8F08170B504460E4606F08000802890
:105920000AD106F00F0000EBC00104F1140000EBF7
:1059300081050120687009E006F00F0000EBC0014E
:1059400004F5157000EB81050020687006F00F006B
:10595000287000BF94F89404012801D1022070BD82
:10596000012084F8940400BF294620680DF094FEBD
:1059700000BF002084F8940400BF00BFEFE770B5BB
:1059800004460E4606F00F002179884201D9012015
:1059900070BD06F0800080280AD106F00F0000EBF1
:1059A000C00104F1140000EB81050120687009E0DA
:1059B00006F00F0000EBC00104F5157000EB810547
:1059C000002068700020A87006F00F00287000BF4B
:1059D00094F89404012801D10220D9E7012084F829
:1059E000940400BF294620680EF050F800BF002044
:1059F00084F8940400BF00BFCAE7024601F00F001C
:105A000000EBC00302F5157000EB8300406970479E
:105A10002DE9F04705460E4690461F464FF0000917
:105A200006F0800080280AD106F00F0000EBC001CC
:105A300005F1140000EB81040120607009E006F01C
:105A40000F0000EBC00105F5157000EB810400208C
:105A5000607006F00F002070C8F30A00A060277184
:105A6000607808B120786083022F01D10020607136
:105A700000BF95F89404012802D10220BDE8F08708
:105A8000012085F8940400BF214628680DF00EFD22
:105A900000BF002085F8940400BF4846EEE72DE9DA
:105AA000F04105460E461746984606F00F0000EBFB
:105AB000C00105F5157000EB8104E760C4F81080A3
:105AC00000206061607006F00F002070A879012846
:105AD00000D1E761AA79214628680EF06BF8002012
